:102C0000D8050020217A0000136C0000B374000086
:102C100000000000000000000000000000000000B4
:102C2000000000000000000000000000EF7900003C
:102C30000000000000000000FB7900003B4800009D
:102C4000A17A0000094F0000A37A0000A57A0000D5
:102C5000A77A0000A97A00004D4F0000AB7A00006F
:102C6000B5590000DD590000AD7A0000AF7A0000D0
:102C70001F490000B17A0000B37A0000B57A000065
:102C8000B77A0000F0B58BB007000E0068465849CF
:102C90000A680260307800280ED002285CD053D336
:102CA00004280FD000D2AAE006285ED021D308283D
:102CB00000D193E064D301E200204E490870052062
:102CC0003070FDE101F0DEFC00200400E4B2032CD2
:102CD00009DA012304226846E4B20119002000F059
:102CE0009CFE641CF2E7052030700020D349087078
:102CF000E6E1D2480078401CD0490870CF480078FF
:102D0000052820DB0020CD49087001F093F9002848
:102D100002D00120307016E036480078401C35495A
:102D20000870344800780A280BDB0020314908700D
:102D3000DF48008B01210143DD4801830120307011
:102D400001E004203070BBE1DA4800688021C9044A
:102D50000143D8480160B3E10020264908700020F3
:102D6000B649087006203070AAE101F08BFC802083
:102D7000D1490860072030700020B04908709FE1F9
:102D8000AE480078401CAD490870AC480078052872
:102D900023DB8020E14908600020A849087001F089
:102DA00049F9002802D10820307016E01148007857
:102DB000401C104908700F4800780A280BDB0020DF
:102DC0000C490870BA48008B01210143B8480183BF
:102DD0000120307001E00620307071E100F0BAFE91
:102DE000002809D1032030700120CD49087005E08A
:102DF000887A0000640B00200020307060E1C94830
:102E00000078401CC7490870C6480078642800DA7A
:102E100045E10020C349087001230022C249012076
:102E200000F0FBFD002800D04AE1CF488078000682
:102E300005D5A0480068BD4901409E4801600223B5
:102E40000422BB49012000F0E8FD002800D037E152
:102E500028230C2201A9012000F0DFFD002800D06A
:102E60002EE1C14808214256BF48018A01A801F05D
:102E7000E9F8B049C883BC4808214256BA48018ADB
:102E800001A8801C01F0DEF8AA490884B648082190
:102E90004256B548018A01A8001D01F0D3F8A549A2
:102EA0004884B14808214256AF48018A01A8801DD4
:102EB00001F0C8F89F498884AB4808214256AA48C7
:102EC000018A01A8083001F0BDF89A49C884A648D3
:102ED00008214256A448018A01A80A3001F0B2F83C
:102EE00094490885A048082142569F48018A01A8B4
:102EF0000C3001F0A7F88F4948859B4808214256BD
:102F00009948018A01A80E3001F09CF8894988850A
:102F10009548082142569448018A01A8103001F0D2
:102F200091F88449C8859048082142568E48018A04
:102F300001A8123001F086F87E4908868A480821E7
:102F400042568948018A01A8143001F07BF879497A
:102F500048868548082142568348018A01A81630D0
:102F600001F070F8734988867F48082142567E48F0
:102F7000018A01A8183001F065F86E49C8867A48C0
:102F8000082142567848018A01A81A3001F05AF8FF
:102F9000684908877448082142567348018A01A885
:102FA0001C3001F04FF8634948876248818F01A8BF
:102FB000263001F05DF85F49486000205D490860F7
:102FC0005D480500002004005C480078E4B28442BB
:102FD0001BD228885A49E4B20222624389186E3112
:102FE00008700020285E00125549E4B202226243B4
:102FF00089186F3108704F4800680021695E4018D9
:103000004C490860AD1C641CDEE74C4800780400A5
:10301000E4B20F2C14DA00204949E4B202226243E0
:1030200089186E31087000204549E4B202226243DB
:1030300089186F310870641CEAE700BF650B002037
:103040003C4800683E4908723A480068000A3C491A
:10305000487238480068000C394988723548006861
:10306000000E3749C87201A8203001F01FF83E4910
:10307000488101A8223001F019F83B49888101A854
:10308000243001F013F83849C8813748408929496C
:103090000883354880892749488300F061F8204833
:1030A00000F002FB002801D00020307008E000BFD3
:1030B000E80A0020440B00203860004000203070F7
:1030C00020488069204901401E4881611D4880696F
:1030D000D849096809011D4A0A400243194882611A
:1030E000D44800681A490870D2480068000A4007AE
:1030F000400F18490870134880691649097800077D
:10310000000FC000084313490870002012490870DE
:103110000020124908700BB0F0BD00BF34600040C1
:10312000CF010020CE010020060B0020FFFFFFFB97
:103130000A0B0020840A0020A20A0020C50A0020F1
:10314000D8050020E80A00200F80FFFFF07F000074
:10315000F8050020F9050020FA050020FB050020F5
:1031600070B582B0004801E0040B00208078694609
:103170000870012000F0AEFB0600AF480A2140565F
:1031800000B236B2B04219DAAC488079401CAB4983
:103190008871A948007EA949897988420AD2A6483F
:1031A000007E401CA5498871A24800681021014397
:1031B000A04801600020A14908711FE09E480C2131
:1031C000405636B200B2864218DA9C480079401C5C
:1031D0009A4908719848007E9849097988420AD22C
:1031E0009548007E401C954908719248006810215E
:1031F0008843904908600020904988718E480B21CF
:10320000405600B236B2B04219DA8C48807A401C7F
:103210008A4988728848407E8849897A88420AD2D9
:103220008548407E401C854988728248006820217C
:103230000143804801600020804908721FE07E48F9
:103240000D21405636B200B2864218DA7B48007A29
:10325000401C7A4908727848407E7849097A884249
:103260000AD27548407E401C744908727148006853
:10327000202188436F49086000207049887200202F
:1032800000F028FB06006C480E21405636B200B212
:10329000864219DA6948C079401C6849C871664895
:1032A000807E6649C97988420AD26348807E401C84
:1032B0006249C8715F480068402101435D48016070
:1032C00000205E4948711FE05B481021405600B263
:1032D00036B2B04218DA59484079401C5749487113
:1032E0005548807E5549497988420AD25248807EA5
:1032F000401C524948714F480068402188434D495D
:10330000086000204D49C8714B480F21405636B225
:1033100000B2864219DA4948C07A401C4749C8724F
:103320004548C07E4549C97A88420AD24248C07E93
:10333000401C4249C8723F480068802101433D4813
:10334000016000203D4948721FE03B481121405672
:1033500000B236B2B04218DA3848407A401C3749D9
:1033600048723548C07E3549497A88420AD2324887
:10337000C07E401C314948722E4800688021884335
:103380002C49086000202D49C8722B480421405E5A
:10339000BE494968884219DA2848007B401C274901
:1033A00008732548007F2549097B88420AD22248B4
:1033B000007F401C214908731E4800680821014312
:1033C0001C48016000201D49487318E01B48407BE1
:1033D000401C1A4948731848407F1849497B884265
:1033E0000AD21548407F401C1449487311480068B0
:1033F000082188430F490860002010490873A44839
:103400008078000703D40B480078C0074AD5A1484C
:10341000050000200400A0480078E4B284420FD2E6
:103420000020285E04490988884209DBAD1C641C21
:10343000F1E700BF440B0020C80A00201C0B00204D
:1034400095480078E4B2844223D194480078401C27
:10345000924908709248C07C90490978884211D2FC
:103460008B488078F7210140894881708D48006839
:10347000012188438B4908608948C07C401D8749E9
:1034800008700FE08748006801210143854801600A
:1034900008E000208149087082480068012101434A
:1034A000804801607A488078400706D47D480068EB
:1034B00001008907C90F002943D076480500002084
:1034C000040075480078E4B2844208D27448408809
:1034D0000021695E884202DBAD1C641CF1E76E4886
:1034E0000078E4B2844223D16C484078401C6B4998
:1034F00048706B48007D69494978884211D2644818
:103500008078FB2101406248817066480068022192
:103510008843644908606248007D401D5F494870E7
:103520000FE060480068022101435E48016008E046
:1035300000205A4948705B480068022101435948FD
:10354000016053488078C00706D4564800680100DF
:103550004907C90F002938D05148407D002803D1C0
:103560004B488079000603D54D48407D002823D084
:103570004A48C078401C4949C8704948C07D4749FD
:10358000C978884211D242488078FE2101404048E3
:1035900081704448006804218843424908604048DB
:1035A000C07D401D3D49C8700FE03E4800680421C1
:1035B00001433C48016008E000203849C8703948A0
:1035C0000068042101433748016031488078800752
:1035D00006D4344800680100C905C90F00293AD053
:1035E0002F48407D002803D129488079000603D563
:1035F0002B48407D002824D028488078401C27494B
:1036000088702748807D25498978884211D22048D2
:103610008078FD2101401E48817022480068A84939
:103620000140204801601E48807D401D1B49887074
:1036300011E01C48006880214900014319480160DD
:1036400009E000201549887016480068802149006B
:10365000014314480160684600780D498978884222
:1036600012D0684600780A4989784140684601705E
:10367000684600780007000F6946087001230022A1
:103680006946002000F0C9F9002076BD840A0020B8
:10369000040B0020A20A0020C50A00201C0B0020F9
:1036A000C80A0020440B0020F8B50700387800282D
:1036B00007D000203870002082490880002082490D
:1036C000086000200400804800688049096888423A
:1036D00006D02000802404437C4800687A490860B2
:1036E0007A4800687A490140002903D12000022469
:1036F000044302E02000FD24044074480068AA4905
:103700000140002903D120000124044302E02000ED
:10371000FE240440002005006A4800788007800FDE
:10372000A249898B8907890F884206D02800802505
:1037300005439E48808B634908809C48808B8007A6
:10374000800F28430500280020404006400E060058
:1037500097480078F6B202213140884208D0B0077D
:1037600002D5012093490872022030409049087028
:103770009048007A042802D03000FD2606408E488A
:1037800000F020F8022802D12800802505432006F9
:1037900001D4280614D58948C179FC20084030435B
:1037A000060005213000C0B200F01EFC002807D042
:1037B0008048008B012101437E480183012000E005
:1037C0000020F2BD00B501000878002809D00228C9
:1037D00061D010D3042868D020D3062864D068D3E1
:1037E00068E077480068364A024075480260002069
:1037F000744A107060E072480068802252000243F0
:103800006F4802600020704A107000206F4A1080DC
:103810000320087001206B4A10704DE06C4800686E
:1038200040071BD568480078401C674A10706648FE
:103830000078062815DB6448007806280AD160481D
:1038400000681F4A02405E4802600420087002209F
:103850005C4A10701E205C4A107002E000205A4A38
:1038600010705A480088401C584A108057480088F9
:10387000FA22520090420DDB0020544A108050483A
:1038800000680F4A02404E4802600520087003207D
:103890004C4A107010E04A480068094A0240484803
:1038A00002600620087007E006E00420454A107018
:1038B00002E001E0002008704248007800BD0000EE
:1038C000FFFEFFFF5C0B0020480B0020440B002094
:1038D00055050000F8B50400002069460870002076
:1038E000050032481821405E060030481621405E2F
:1038F000070036B23748864203DB36B23648864286
:1039000002DB0120694608703FB23248874203DB80
:103910003FB23148874201DB01200500684600784C
:10392000012804D1EDB2012D01D107203AE068460B
:103930000078012806D13FB238000A2100F0C8FE05
:1039400040B22FE0EDB2012D06D136B230000A218F
:1039500000F0BEFE40B225E0E4B2012C11D13FB22E
:1039600036B2B74206DA36B230000A2100F0B0FEB5
:1039700040B217E03FB238000A2100F0A9FE40B281
:1039800010E036B23FB2BE4206DA36B230000A214B
:1039900000F09EFE40B205E03FB238000A2100F080
:1039A00097FE40B2F2BD0000AA040000840A002085
:1039B000660B0020E80A0020F00A0020040B00201B
:1039C00030600040680B0020670B00205E0B002079
:1039D0001C6000407AFEFFFFE903000030B50300E1
:1039E000002528000D00691EEDB2002D13D08025A2
:1039F0002C00E4B2002C0CD0050602D5400050404B
:103A000000E040001D78254200D05040E4B2640838
:103A1000EFE75B1CE6E7C0B230BDF5B599B00C002E
:103A20001F0019A8007801285CD1FFB2322F01DBFA
:103A300001208DE000200600F6B20A2E4DDA11209A
:103A40006946087002237B43DBB21AA8027892B25F
:103A50006946491C102000F005FD00283BD10020DC
:103A60000500EDB2FFB2BD4231D2EDB2002D0FD153
:103A7000072202216846FFF7B1FF69468978C0B284
:103A8000884204D1684640782070641C1DE01EE026
:103A9000072201216846EDB202236B43C018401C87
:103AA000FFF79CFF6946EDB202226A4389188978C4
:103AB000C0B2884208D16846EDB20221694340187D
:103AC00040782070641C00E001E06D1CC9E7EDB295
:103AD000FFB2BD4201D0761CAEE7F6B20A2E36D157
:103AE000012035E000200500EDB2FFB2BD422ED22C
:103AF00000200600F6B20A2E22DA1020694608706D
:103B00001AA800784019694648702078694688707C
:103B1000072203216846FFF761FF6946C870022348
:103B20001AA80078EDB2421992B26946891C102099
:103B300000F023FD002801D1641C01E0761CD9E7C8
:103B4000F6B20A2E01D1022002E06D1CCCE7002063
:103B50001BB0F0BDF0B58FB000270223502269469C
:103B60000120FFF75AFF002801D0022035E201238F
:103B700059226946891C0120FFF74FFF002801D018
:103B800003202AE2684600780C2101408748018220
:103B90008648008A4000854908828448008A694630
:103BA0008978C9B24909C9B20843804908827F4867
:103BB000008AFF216E3140187C49088268464078AF
:103BC0007A49087200200600F6B20A2E30DA012087
:103BD00007007748008B80B280080100C907C90F31
:103BE000002914D11E23D0226946A02000F03AFCFF
:103BF00000280ED107221D216846FFF7EFFE694617
:103C0000497FC0B2884204D10020070001E00220B1
:103C1000070068460078FF2802D0FFB2022F02D1C9
:103C20000A20060004E0FFB2002F01D0761CCBE78B
:103C30003F206946887700206946C877002069469A
:103C4000203108700020694621310870182069462B
:103C500022310870402069462331087019206946D6
:103C600029310870F6B20A2E32D19F2069462431DC
:103C700008705F206946253108705020694626315A
:103C80000870D748494908228956401A0400FA208A
:103C90008000444320004549098A00F01CFD0400CF
:103CA0002009694627310870CE48404908228956C4
:103CB000401A0400FA208000444320003B49098A4E
:103CC00000F009FD0400200969462831087040E031
:103CD0006846807A6946243108706846007B6946E8
:103CE0002531087068460079F02101406846263089
:103CF0000170684600780400240268464078241861
:103D00002A4808214056241AFA2080004443200003
:103D10002649098A00F0DFFC0400200969462731A2
:103D200008706846407904002402684680792418A7
:103D30001E4808214056241AFA20800044432000DF
:103D40001A49098A00F0C7FC040020096946283195
:103D5000087000200600F6B20A2E30DA0C2300228A
:103D600069461E310020FFF758FE0B2300226946EA
:103D70002A310120FFF751FE01200500EDB20B2D85
:103D800018DA6846EDB24019817FC748EDB2405D50
:103D900008406946EDB249192A310978C24AEDB2A4
:103DA000525D0A40904205D16D1CE7E7040B0020EC
:103DB000E80A0020EDB20B2D01D0761CCBE7F6B25D
:103DC0000A2E01D1042008E1FFB2002F00D0B1E09B
:103DD0006846C0780002694689784018D34948800F
:103DE0006846007A00026946C9794018CF490880C0
:103DF0006846807BC0101E2101402831CB4881726B
:103E00000A206946497CC9101E220A40801AC74907
:103E100088736846807B0007000F40002830C34944
:103E2000C8720A206946497C0907090F4900401AEF
:103E3000BE49C8736846C07BC0101E2101402831AE
:103E4000BA4801730A206946897CC9101E220A40BB
:103E5000801AB64908746846C07B0007000F40000E
:103E60002830B24948730A206946897C0907090F3E
:103E70004900401AAD4948746846007E40B264214A
:103E80004143AA4881806846407D00026946097D19
:103E90004018A649C8806846807D64214143A348F4
:103EA00001816846C07DA14988746846407E9F496B
:103EB00008776846807E9D4948776846407A0007C3
:103EC000000F9A4908756846407AC0B200099749C0
:103ED000C8746846407B9549C8756846C07A4006F4
:103EE000400E924988756846C07AC0B2C0098F49B1
:103EF00048756846007CC0B200098C49087668465F
:103F0000007C0007000F894948766846C07CC0B233
:103F10000009864988766846C07C0007000F8349FF
:103F2000C8766846007F00026946C97E401880490D
:103F3000888751E07F487D4948807F487B490880D9
:103F400046207A4988720920C04378498873322014
:103F50007649C87200207549C873412073490873B7
:103F60000420C043714908742D207049487305200E
:103F70006E49487471486D498880FA2000016B4988
:103F8000C880FA2080006949088132206749887416
:103F9000052066490877052064494877042063496D
:103FA000087504206149C87404206049C8753C2024
:103FB0005E49887500205D49487503205B49087695
:103FC00003205A49487603205849887603205749E8
:103FD000C87604485649888700200FB0F0BD00001D
:103FE0009A100000C409000070B582B006000D00F0
:103FF0006846067000200400E4B20A2C18DA012397
:104000002A00D2B269460020FFF707FD01232A00EB
:10401000D2B26946491C0120FFF7FFFC68460078D0
:1040200069464978884201D1002002E0641CE3E738
:10403000012076BD80B5012300226946102000F0E2
:1040400011FA02BD70B504000D0016002178890632
:10405000890E08000002641C21784018ADB2684344
:10406000FA21890000F034FB76B2801900B270BDED
:1040700030B504000D00217809026278891809B270
:1040800008002F494843ADB22E498D4204DAADB243
:10409000FA2149008D4201DA2B490D00ADB2290009
:1040A00000F016FB30BD0000307A0000F0B50600CD
:1040B00031788906890E0F00761C3F0231787F180F
:1040C0002249080000210D00EDB21F2D2BDA2049F6
:1040D000EDB202226A43895ABFB2B94220D2EDB290
:1040E000002D1CD00400BFB21948EDB20221694373
:1040F000405A381A322148431549EDB202226A4328
:104100008918891E0988124AEDB202236B43D25ADC
:10411000891A00F0DDFA01002000401A03E002E0F5
:1041200032306D1CD0E700B2F0BD0000C80A00209C
:10413000840A002036100000B80B00007C15000037
:10414000F8200000214E0000C409000070FEFFFFAF
:10415000D078000010B500F001FC002004009D485C
:104160000068800406D4641CA4B2AA488442F6DB2A
:10417000012000E0002010BD10B500F0EFFB002092
:10418000040094480068C00406D4641CA4B2A1488A
:104190008442F6DB012000E0002010BDAD4800683D
:1041A000AD490140AB480160AA4800688821090474
:1041B0000143A8480160704700B5C0B2102802D181
:1041C00000231A000DE0C0B2A02802D100231A007B
:1041D00007E0C0B2A22802D100231A0001E0122396
:1041E0001A0000231900C9B2D2B2914201D2491C6F
:1041F000F9E700BD10B50400802040019749086030
:104200008020800195490860FFF7A4FF002805D0B1
:104210008020400191490860002010E02000C0B2D9
:10422000FFF7CAFF802040018D4908602000C0B21E
:10423000FFF7C2FF8020800189490860012010BD7E
:1042400010B5040080204001854908602000C0B2FC
:10425000FFF7B2FF8020800180490860FFF77AFFF6
:10426000002805D0802040017C490860002012E031
:104270002000C0B2FFF7A0FF80204001774908600E
:10428000FFF77AFF002805D080208001734908607D
:10429000002000E0012010BD70B505000C000020DA
:1042A0000600F6B2082E2BDA280604D5802040013D
:1042B0006A49086003E080204001694908602000E5
:1042C000C0B2FFF779FF8020800164490860FFF7E2
:1042D00041FF002805D0802040016049086000208F
:1042E0000FE02000C0B2FFF767FF802080015C492B
:1042F00008602000C0B2FFF75FFF6D00761CD0E7BA
:10430000012070BD70B5040000200600802040012F
:10431000524908602000C0B2FFF74EFF00200500A0
:10432000EDB2082D21DA7600802080014B4908602B
:10433000FFF710FF002805D08020400147490860A2
:10434000002014E02000C0B2FFF736FF21480068CB
:10435000C00400D5761C80208001414908602000FF
:10436000C0B2FFF729FF6D1CDAE73000C0B270BDA4
:1043700070B504002000C0B2FFF71EFF802040018E
:10438000364908608020800134490860FFF7E2FE6A
:10439000002805D08020400130490860002018E046
:1043A0002000C0B2FFF708FF002005000020060033
:1043B0000A2E08D207480068C00402D50120050073
:1043C00001E0761CF4E78020800125490860280080
:1043D000C0B270BDAC60004010B504008020400148
:1043E0001F490860802080011C490860FFF7B2FE69
:1043F000002805D08020400118490860002008E00E
:104400002000C0B2FFF7D8FE802080011449086068
:10441000012010BD3521000010B5040080204001AE
:104420000E490860802080010C490860FFF792FE69
:10443000002805D08020400108490860002008E0DD
:104440002000C0B2FFF7B8FE802080010449086058
:10445000012010BD98600040FFFF00FFA0600040F9
:10446000A4600040FEB504000F002000C0B2FFF7BA
:10447000C1FE002802D10A20060077E02100C9B25F
:104480002000C0B2FFF708FF012802D00B20060071
:104490006CE02000C0B2FFF76BFF002802D00C20B8
:1044A000060063E0E4B2A02C16D12100C9B2684630
:1044B000808880B2000AC0B2FFF7EEFE002802D169
:1044C0000D20060052E02000C0B2FFF751FF002887
:1044D00002D00E20060049E02100C9B2684680885B
:1044E000C0B2FFF7D9FE002802D10D2006003DE042
:1044F0002000C0B2FFF73CFF002802D00E200600CB
:1045000034E02000C0B2FFF775FE2100C9B20120DF
:104510002043C0B2FFF7C0FE2000C0B2FFF728FF63
:10452000002823D1002005006846007AEDB28542BC
:1045300016D22000C0B2FFF7E5FEEDB27855EDB21D
:104540006846007A401E854204D02000C0B2FFF7C2
:1045500043FF03E02000C0B2FFF75EFF6D1CE3E7FE
:104560002000C0B2FFF76CFE002005E02000C0B2C2
:10457000FFF766FE3000C0B2FEBDFEB582B0060099
:104580006846808905000020694608700020070001
:104590000498874268D2002F06D0A806800E002813
:1045A0004FD1F6B2102E4CD03000C0B2FFF748FE0B
:1045B0003000C0B2FFF700FE002004001E2C11D214
:1045C0003000C0B2FFF716FE3100C9B23000C0B2F1
:1045D000FFF762FE3000C0B2FFF7CAFE002801D02C
:1045E000641CEBE71E2C03D105206946087041E0EE
:1045F000F6B2A02E15D13100C9B2280AC0B2FFF719
:104600004BFE002803D10D206946087032E03000CF
:10461000C0B2FFF7ADFE002803D00E206946087037
:1046200028E03100C9B22800C0B2FFF735FE3000E3
:10463000C0B2FFF79DFE002803D003206946087032
:1046400018E03100C9B20298C05DFFF725FE3000C6
:10465000C0B2FFF78DFE002803D004206946087021
:1046600008E06D1C7F1C93E73000C0B2FFF7E8FD47
:10467000002005E03000C0B2FFF7E2FD6846007898
:1046800005B0F0BD80B506480068FF21090401406F
:1046900088200004814201D0FFF780FD01BD0000A9
:1046A00098600040F446002804D4494200F013F812
:1046B000404260474042002905D45FD000F00BF82B
:1046C000404249426047494200F005F8494260478C
:1046D00003460B43E6D40022030A8B420BD20309A4
:1046E0008B4219D243088B422ED2411A00D2014686
:1046F000524110467047FF2209023FD012068B42FA
:1047000005D3121209028B4201D3121209020309C6
:104710008B4219D300E0090AC3098B4201D3CB01B4
:10472000C01A524183098B4201D38B01C01A5241F6
:1047300043098B4201D34B01C01A524103098B42FA
:1047400001D30B01C01A5241C3088B4201D3CB00E5
:10475000C01A524183088B4201D38B00C01A5241C8
:1047600043088B4201D34B00C01A5241884200D308
:10477000401A5241CFD201461046704708B5C04694
:10478000C04608BDF0B540B2002821D57D4C40B2EE
:104790000207120F083A950804225543794A40B29D
:1047A00003071B0F083B9B0804267343D258FF23C3
:1047B0008607B60F08277E43B3409A438B01DBB2CE
:1047C0008607B60F08277E43B340134363511AE0B0
:1047D0006D4A40B2830804246343D258FF23840700
:1047E000A40F08256C43A3409A438B01DBB28407D6
:1047F000A40F08256C43A3401343634A40B28408C6
:1048000004256C431351F0BD10B50400601E8021D7
:104810004904884201D301200EE0601E5B49086014
:1048200003210020C043FFF7ADFF00205849086076
:10483000072058490860002010BD00B583B05648D5
:104840000078012101435448017054480078401C0D
:1048500052490870514800780A2820DB00204F494F
:1048600008704D480078022101434B4801704A48C6
:104870000078202101434848017049480078401CD5
:104880004749087046480078642808DB00204449FE
:10489000087041480078042101433F4801703E48B8
:1048A0004088401C3C49488068463E49052200F04B
:1048B00097F8684603C800F0BCFA00F0F3FF07BDA4
:1048C00080B5394801F0DAF9FA218900FFF703FFD2
:1048D000FFF79AFF002800D0FEE701BD80B5032155
:1048E000324801F0A7FA0121314801F089F9314835
:1048F000006800903049002001F0D8FB2F48006884
:10490000022101432D4801602D48006880214901A2
:1049100001432B480160684601F0E1FB01BD00B591
:1049200028480068800718D50220274908602748D2
:10493000007803280BD1184800780221014316485B
:104940000170154800782021014313480170124876
:104950000078102101431048017000BD80B501F0BE
:10496000EEFB01BD10B584B00121194801F048F9F2
:10497000684618491CC91CC00C390C38684601F03F
:10498000EFFB1FBD1CED00E000E400E014E000E0E0
:1049900018E000E010E000E0500B00207B0B00204E
:1049A0007C0B00202C0B00202000040002000600DD
:1049B000300408008C7A0000FF7F00001C000840D3
:1049C00000E100E01000084018000840E80A00205C
:1049D00000230400487A000080B5FFF77FFF01BD87
:1049E000124207D08B0706D00B78491C0370401C7D
:1049F000521EF7D87047830706D00B78491C037006
:104A0000401C521EF9D1704770B4103A03D378C9D4
:104A1000103A78C0FBD2530701D318C918C001D58A
:104A200008C908C0D20704D30B880380891C801CE6
:104A3000002A01D50B78037070BC704738B50500AB
:104A400001211B4801F0DCF8EDB2032D06D1012352
:104A500004220721012001F038FC05E00123042293
:104A60000721012001F031FC00200400E4B2052CF4
:104A70000BDA012304220F48E4B2015D0E48E4B2D0
:104A8000005D01F022FC641CF0E7012301220221F9
:104A9000052001F01AFC012301220121002001F070
:104AA00014FC012301220221002001F00EFC31BD83
:104AB00000720200807A0000787A00000DB4F0B530
:104AC00084B00D002878002810D0022822D013D3FB
:104AD000042800D1B2E029D3062800D1F3E000D2A7
:104AE000E7E0082842D000D20EE149E16420B34952
:104AF00008700120287045E1B0480078002805D0F2
:104B0000AE480078401EAD49087002E00020AC4974
:104B1000086137E1A9480078401CA8490870A748F7
:104B20000078652801DB032028702BE10AA83E30BD
:104B30000078A2490978491EA04A11709F49097856
:104B4000C0B2884201D3042028709C48007806280F
:104B50000BDA06209949087099488078082802D114
:104B60000820287001E0042028700BE10AA83E30DC
:104B700000785F2856DA00200400E4B2042C0DDA35
:104B80000AA83E3000781A2808DB0AA83E300078D0
:104B900019380AA93E310870641CEEE768460470B3
:104BA0000020040068460078E4B2844205D209205F
:104BB000BC49E4B20855641CF4E780480078401C06
:104BC0007E4908707D4800780A2821DB00207B4957
:104BD00008707C48007800280DD1B248E4B2005D2E
:104BE000401CB049E4B2085540B20A2810DB01204D
:104BF000744908700CE0AB48E4B2005D401EA9495E
:104C0000E4B2085540B2012802DA00206D4908706C
:104C1000641CE4B2042C10DA0020A249E4B2085566
:104C2000641CF6E700200400E4B2042C05DA092035
:104C30009C49E4B20855641CF6E7A3E09A48007862
:104C400001281ED00AA83E3000785C4908705B48F5
:104C50000078062802DA062058490870584880690A
:104C6000002825D0052028700420029000268F4FB0
:104C700032000299380001F0A5FB0920894908702B
:104C800016E09E480078401C9C4908709B480078BC
:104C900014280DDB00209949087048480078002846
:104CA00003D000204549087002E0642043490870A1
:104CB00068E0434880699249086000209149087083
:104CC000062028705EE08E480078C0070BD58D481E
:104CD00000789B49087007202870002099490870C7
:104CE0002720994908708648006840088449086070
:104CF00084480078401C8349087082480078202846
:104D000001DB052028703DE08E480078401C8D496D
:104D100008708C4800785A2831DB64208949087073
:104D200076480078401C75490870874800787349B8
:104D30000978884223D20020704908700920594917
:104D40000870584801214056002806D109205549CD
:104D5000487009207C49087011E0002051494870D2
:104D600027207949087076480078002805D07448D3
:104D70000078401E7249087001E00620287001E0AA
:104D800000202870287805280EDA04220B480078C5
:104D9000010049B200A8401C00F016F8414800A9E3
:104DA000491C0522FFF71CFE09983E490522FFF722
:104DB00017FE04B00499F0BC04B008476B0B002048
:104DC000E80A0020710B0020F5B585B00C000A2020
:104DD0006946097EFFF77CFC694608700520029051
:104DE0000020019003AF019A0299380001F0EAFA1D
:104DF000002005006846007EEDB2854212D20020F8
:104E00000600F6B20A2E0BDA68460078241A64B25D
:104E1000012C04DB03A8EDB24655761CF1E701E056
:104E20006D1CE7E7059803A90522FFF7D9FD07B038
:104E3000F0BD03B553490978491C524A11705149D4
:104E40000978092902DB00214E4A1170002108006F
:104E5000C0B2052825DA4B4909786A46C0B2125615
:104E600009B212B291420DDA4749484AC0B2125C07
:104E700024235A4389180122454BC0B21B5C9A4037
:104E80004A610CE04049414AC0B2125C24235A43B3
:104E9000891801223E4BC0B21B5C9A400A61401C3B
:104EA000D6E703BD340B0020C70A0020350B0020D5
:104EB00080B501200090012301220221052001F08C
:104EC000B6F901200090012301220121002001F008
:104ED000AEF930480068022101432E4801602D4898
:104EE0000068402101432B4801602B4800680421E1
:104EF00001432948016001BD000000006F0B002044
:104F00004C0B00206C0B002000B5244800684007C3
:104F10000ED5234800680421014321480160642024
:104F2000204988721C480068042188431A49086097
:104F30001B4800681C4901431948016000BD00007E
:104F40006D0B00206E0B0020700B002000B5134885
:104F5000006880070ED512480068022101431048FE
:104F6000016064200F4988720B4800680221884361
:104F7000094908600A4800680C4901430848016073
:104F800000BD0000720B002000600040787A000035
:104F9000807A000000E100E01061004014610040F0
:104FA0001C610040E80A002055550000AAAA000034
:104FB0000121C206D20E9140A84A1160704701211A
:104FC000C206D20E9140A64A1160704781647047B4
:104FD000006C704710B586B004000121A14800F0B4
:104FE0000FFE6846A0491822FFF70EFDE12040029F
:104FF000029069469D4801F074FA9D489D490860F9
:10500000012304220021022001F05FF90023012284
:105010000121022001F059F903209749086000207E
:10502000964908609548006805210143934801604E
:105030000820FFF7C4FF0920FFF7C1FF0820FFF792
:10504000B7FF0920FFF7B4FF06B010BD70B502002E
:105050001088512801DB0020108010881018C173BF
:105060001088401C108005209072D07B462806D006
:10507000D07B3A2803D0D07B2B2800D0DBE0D07B3C
:105080002B2800D1BFE01088022805D1107C1628FB
:1050900002D001207A4E30701088052800DACDE069
:1050A000D07B462873D1107C16286CD1507C012807
:1050B00003D10520734E307014E0507C00280BD1D2
:1050C000D07C401D6F4E30706E4800784C2809DB54
:1050D0004B206C4E307005E00120694E307000208E
:1050E000684E307067480078168880B2B04200D3AE
:1050F000A4E00020030000200400E4B21088401E59
:10510000844205DAE4B21019C07B1B18641CF4E772
:10511000DBB2108880B21018807B9BB280B28342D1
:105120002DD159484069584E30610120D07202207B
:105130001072507C1073907C5073D07C5080107B28
:10514000012805D15088F62807DBF520508004E0BF
:1051500050884C2801DB4B205080107B00280ED15A
:1051600002200400E4B25088801C844207DAE4B2D2
:105170001019807CE4B21619F073641CF2E7012068
:105180003F4E30705AE001203D4E307056E0107CAA
:10519000162834D11088092850DB907CC01D394E68
:1051A000307038480078168880B2B04246D200206D
:1051B000030001200400E4B21088001F844205DAD5
:1051C000E4B21019C07B1B18641CF4E7108880B28D
:1051D0001018007B05002D02108880B21018C07ACC
:1051E0002D18ADB29BB29D4205D10220D072022093
:1051F0001072507C50730120214E30701EE001204F
:105200001F4E30701AE0108880B21018807B0A2878
:1052100014D1108880B21018407B0D280ED1107C5C
:105220004F2801D10120D0720020D07300201074CB
:105230000020108002E00120114E307010480078EC
:10524000012808D100200E4E30700020D0730020BD
:10525000107400201080012070BD000000E100E00B
:1052600080E200E000320200087A000000C4004042
:10527000F91F000048C4004054C400404CC4004022
:105280007D0B00207E0B0020E80A0020F2B584B0E0
:1052900005001700A87A002803D0A87A401EA8723B
:1052A00005E00020E8730020287400202880E87AB8
:1052B000002804D10020FF215A3168540DE0FF205E
:1052C0005A30285C401CFF215A316854C0B265280E
:1052D00003DB6420FF215A316854FF205A30285CD8
:1052E000042801D00120C5E2E87A012800D079E144
:1052F0000020E87201202872287B012860D1472015
:105300005F216854162060216854287B612168540D
:10531000687B6221685400200400E4B21A2C07DA8A
:10532000687BBB49E4B2095D884201D0641CF4E7A4
:10533000E4B21A2C42D06888632168546846B549A3
:10534000E4B2095D81700020060000200400E4B290
:10535000052C06DAE4B228195F3000783618641C90
:10536000F5E7002004002000C0B2698880B28842BE
:1053700012D2A94869468978E4B20919405CE4B2BE
:10538000291964310870A44869468978E4B209197A
:10539000405C3618641CE6E76888801DA8803000F1
:1053A000E4B2291964310870A888E8806846007C56
:1053B000002800D05DE2012068725AE2002059E224
:1053C0000620A880687B002868D1032229001231BA
:1053D000924800F0D7FA002813D0687C012803D146
:1053E00001208F4908700CE0687C462803D1012019
:1053F0008C49087005E0687C472802D10020894963
:105400000870042229001131874800F0BBFA0028F7
:1054100009D0012085490870002084494870002087
:105420008249887023E0042229001131D54800F018
:10543000A9FA002806D001207C49487000207B4949
:10544000887014E0042229001131CF4800F09AFA44
:10545000002803D001207549887008E000207349B6
:1054600008700020714948700020704988706F48AA
:10547000007801280ED16D48407801280AD16B4888
:105480008078012806D101F095F8002802D001208B
:10549000D24948726248007878707CE0687B77284F
:1054A00051D101203870687CB870A87CF870B87849
:1054B000042824D100200400E4B2042C07DAE4B26A
:1054C0002819C07CE4B239190871641CF4E7E87D3E
:1054D0003872387A972801DB96203872F878C0073E
:1054E0002DD400200400387AE4B2844227D2E4B2FA
:1054F0002819007EE4B239194872641CF3E7B878C1
:1055000002281AD1E87C3871287D78710020B871A2
:105510000020F871687D3872F878C0070FD4002039
:105520000400387AE4B2844209D2E4B22819807DBA
:10553000E4B239194872641CF3E70020A8803848A7
:105540000078787027E0687B1D2824D134480078E3
:1055500001281ED1002032490870687CC6490870B5
:10556000A87CC5494870E87CC3498870287DC24939
:10557000C870687DC0490871A87DBF49487101A8FD
:10558000BD490622FFF72CFA01A803C801F0F4FA7E
:1055900001E00020A88047205F2168541620602188
:1055A0006854287B61216854687B6221685400201C
:1055B000632168540020060000200400E4B2052C9A
:1055C00006DAE4B228195F3000783618641CF5E773
:1055D000300064216854A888002800D149E1A888D7
:1055E000E88046E1E87A022800D042E10020E87233
:1055F0000120287200200400E4B20C2C18DA687B29
:10560000AE49E4B2095D884212D0641CF4E700BFE1
:1056100094790000B0790000D8050020907A00004D
:105620007F0B0020C70A0020947A0000540B002052
:105630000020A880E4B20C2C00D115E10220688083
:10564000CE48E4B2005D042800D1A6E0FF2800D0D7
:10565000C6E0687B242848D10E206880C848C08BEB
:1056600063216854C648C08B80B2000A6421685424
:10567000C348008C65216854C148008C80B2000A80
:1056800066216854BE48408C67216854BC48408CF1
:1056900080B2000A68216854B948808C6921685436
:1056A000B748808C80B2000A6A216854B448C08C24
:1056B0006B216854B248C08C80B2000A6C216854D7
:1056C000AF48008D6D216854AD48008D80B2000A4E
:1056D0006E216854AA48408D6F216854A848408DB7
:1056E00080B2000A7021685456E0687B25284DD1AD
:1056F0000E206880A248808D63216854A048808D68
:1057000080B2000A642168549D48C08D65216854A8
:105710009B48C08D80B2000A662168549848008E6C
:10572000672168549648008E80B2000A6821685448
:105730009348408E692168549148408E80B2000A97
:105740006A2168548E48808E6B2168548C48808E04
:1057500080B2000A6C2168548948C08E6D2168545B
:105760008748C08E80B2000A6E2168548448008F3A
:105770006F2168548248008F80B2000A70216854FB
:105780000AE000BF987A00009C7A000000206321A4
:10579000685400206421685431E06846A049497982
:1057A00001806846009909B20902018068460099A3
:1057B00009B29B4A1279114301806846009909B2E7
:1057C000984A89180180009800B2632168540098B3
:1057D00000B200126421685411E000BFE80A002002
:1057E0008F486649E4B2095D405C632168548C4887
:1057F0006249E4B2095D40184078642168543A2057
:105800005F216854162060216854687B61216854C8
:105810006888622168540020060001200400E4B278
:105820006888001D844206DAE4B228195F300078E7
:105830003618641CF3E73000E4B229195F310870B0
:10584000300080B2000AE4B22919603108700D20DE
:10585000E4B22919613108700A20E4B229196231D1
:10586000087068880830A880A888002801D0A88817
:10587000E880012005B0F0BD3C0B002000B502001F
:10588000C88800280CD088880300C8881B1A9BB2DF
:10589000002B05D15F20085C5063C888401EC8807B
:1058A000012000BD80B5604A00216048FFF7EEFC92
:1058B0005E495F48FFF7E2FF01BD0000547A000037
:1058C000F8B50500A878022852D1E878C00719D5A4
:1058D000E87807003800FE270740687904002402B2
:1058E000287904432B7A220092B252493800C0B280
:1058F000FEF7B8FD00283BD00020A8700020E8701B
:1059000001203AE06878012832D100206870002038
:105910000600287AB6B280B2864209D2B6B2A81979
:10592000407A3F49B6B28919DE310870761CF0E73B
:10593000E87807003800FE27074068790400240251
:10594000287904432B7A220092B23A493800C0B237
:10595000FEF713FE002805D00020A8700020E87094
:1059600001200AE0344800780221014332480170E6
:105970000020A8700020E8700020F2BD607A0000CE
:10598000840A002030B5030000200400E4B2D2B243
:10599000944207D2E4B2185DE4B20D5DA84201D191
:1059A000641CF3E7E4B2D2B2944201D1012000E0DA
:1059B000002030BD38B51E48FFF70AFB0400210067
:1059C0001B48FFF703FB600707D51C48006805006C
:1059D0002900C9B21548FFF739FB31BD10B5184B86
:1059E0001B681A00174B1A60D30717D50F4BDB88BB
:1059F000002B13D00D4B9B8819000C4BDB88180033
:105A00000A4BC9B2C0B20C1A1B195F331B780E4C7B
:105A10002360064BDB885B1E044CE38010BD000056
:105A2000D8050020AB0A00004C090020F007002038
:105A300000C40040B6060020C40A00201CC4004078
:105A400040C4004048C4004034C4004030B40300A7
:105A50001C6810000200D207D20F01208840C54305
:105A60002540100088402843186030BC704700B5BE
:105A70005649096808004107490F0029012904D83F
:105A8000072188430100012008435049086000BDF8
:105A900000B54E4A126811004D4A904207D34D4A54
:105AA000904204D2072291430A0001211143484A3F
:105AB000904201D207229143444A116000BD00B5D3
:105AC00045490968E022D2000A40002A19D0802105
:105AD00049008A4212D0802189008A420BD0C0211D
:105AE00089008A4204D0E021C9008A420CD00EE02D
:105AF0003A4908000DE03A4908000AE0394908002F
:105B000007E03949080004E03849080001E00021B5
:105B1000080000BD38B5364800F018F90500EDB2B0
:105B20002800072805D0082807D101F080F80400D4
:105B300005E0FFF7C4FF040001E00020040020009E
:105B400032BD38B50400002C01D0012C01D1012058
:105B500000E00020C0B22748006821000222514323
:105B6000C8408007800F002812D0022807D002D337
:105B7000032808D01BE080200002050019E001F096
:105B80009EF8050015E001F045F84008050010E01A
:105B900018480068042161431031C840002803D030
:105BA000FA208000050001E00020050001E000204F
:105BB0000500280032BD00B50F490968C90704D4A3
:105BC0000E49096801400029FAD100BD04000C40CB
:105BD0000124F4000148E80114800C4040420F0009
:105BE000C0CF6A00C0D8A700809FD500406F400199
:105BF0000400180028800C4054800C4050800C4059
:105C0000F8B506000D00002430120007000FC0B2E6
:105C1000012809D01ED303280CD008D3052811D0A1
:105C20000BD3062813D015E01348070013E07C4877
:105C3000070010E07B4807000DE07B4807000120CB
:105C4000040008E0794807001020040003E07848C9
:105C5000070000E00EE03013C006C00E0090002CDC
:105C600002D02000FFF7A7FFEDB22A00009938000C
:105C7000FFF7ECFEF1BD000008800C4038B50400D1
:105C8000F82080032040002820D08021890288420B
:105C900020D08021C902884225D0C021C902884273
:105CA00025D080210903884226D0902149038842CB
:105CB0002CD0A021490388422DD0C021490388421D
:105CC00033D0D0214903884233D036E000F0AFFF13
:105CD000050034E000F0ABFF05009F4800680007B6
:105CE000000FC5402BE000F095FF050027E00020E5
:105CF000FFF727FF050022E00020FFF722FF050045
:105D0000104800680007000FC54018E00120FFF7A9
:105D100018FF050013E00120FFF713FF05000A48F4
:105D200000688007800FC54009E0FFF7F3FE05001B
:105D300005E0FFF7C4FE050001E000200500280093
:105D400032BD000068800C4070800C4010B501002E
:105D500001200B071B0F1A00012A06D05BD3032A70
:105D60003CD01FD3042A55D055E07C4B1B68F0244F
:105D7000A4011C4080231B019C420DD080235B01A9
:105D80009C4206D080239B019C4208D1022318002C
:105D900007E00323180004E00423180001E00523B2
:105DA00018003AE06E4B1B689B079B0F012B04D039
:105DB0000CD3032B07D003D308E0032318000CE017
:105DC0000223180009E00623180006E0644B1B6854
:105DD000DB0302D509231800FFE71EE0604B1B68B8
:105DE0000C241C40042C04D0082C05D00C2C06D00C
:105DF00008E0032318000CE00223180009E0062342
:105E0000180006E0564B1B68DB0202D50923180078
:105E1000FFE702E001E000231800C0B210BD00005F
:105E200044800C4040800C4058800C4060800C4006
:105E300078800C40F1B584B00F00032503240026C0
:105E400004980007000F01900198401E03D0401EE7
:105E5000012836D97DE0FFB23800022808D0032897
:105E60000BD004280ED0052811D0092814D014E036
:105E7000042005000020040010E00320050001209C
:105E800004000BE0022005000220040006E00120CF
:105E900005000320040001E000E05AE00122012196
:105EA0002000C0B200F0A6F8FFF7E1FD5048056001
:105EB00000F08AFF00F0AEFE02900298FFF7E8FDC6
:105EC00047E0FFB23800012808D0022809D0032893
:105ED0000FD0062815D009281BD01FE00020009005
:105EE0001DE001220121002000F084F80220009032
:105EF00015E001220121012000F07CF80120009032
:105F00000DE0012202216148FFF7A0FD032000906F
:105F100005E0002000900120060000E019E0019853
:105F200002280AD10E4800685949014000980843E8
:105F3000310401430A4801600AE0094800685549F4
:105F40000140009880000843310501430448016086
:105F5000FFE705B0F0BD000008800C402C800C402D
:105F600028800C40F8B50400E4B2002C06D0022CC6
:105F70000FD008D3042C17D011D31AE0474800687B
:105F8000C0B2050016E045480068000AC0B205002E
:105F900010E042480068000CC0B205000AE03F482B
:105FA0000068000E050005E03D480068C0B205002D
:105FB00000E01BE00120FFF7C9FE0600F6B2052E47
:105FC00001D1FFF754FD34480068C00AC002E4B2B2
:105FD00021022943014330480160F6B2052E05D164
:105FE00000F018FE07003800FFF752FDF1BD000079
:105FF00024800C40F7B50400E4B2002C24D0022C1D
:106000000DD01AD3042C11D002D3052C26D026E0B3
:1060100001200700022006000220050020E00420E5
:106020000700082006000820050019E010200700DE
:10603000202006002020050012E0402007008020DC
:106040000600802005000BE0802040000700802033
:106050008000060080208000050001E014E013E0CD
:106060006846007900280BD00E4807606846007A21
:10607000002807D00C4800682840002802D1F9E722
:106080000848066000F0A0FEF7BD000040800C400C
:10609000FCFFFEFFF3FFEFFF0C800C40DC81E00F04
:1060A000E081E00F20800C402C800C4000B50228DD
:1060B00005D20B0E1B06002B01D1012300E00023AB
:1060C000DBB2002802D0012803D005E0104B1A00F3
:1060D00003E0104B1A0000E000E0116000BD00B5C5
:1060E0000278002A02D00122110001E000221100F2
:1060F0004278002A02D00A00022111438278002A45
:1061000002D00A0004211143034A116000BD0000BF
:10611000080008400C0008400000084030B40300AC
:106120001C6810000200D207D20F01208840C5432E
:106130002540100088402843186030BC704700B5E7
:1061400030480068C0070AD52D480068800706D48B
:106150002B480068C007FBD401202B49086000BD14
:1061600038B505002878002802D00120040001E09D
:10617000002004006878002802D020000224044394
:10618000A878002802D0200004240443E8780028DE
:1061900002D02000082404432879002802D02000DF
:1061A000202404436879002802D0200040240443BE
:1061B000E8790103287A00020843204304001048CC
:1061C0000068C007FBD40F480460A87900280AD0F3
:1061D0002878002802D000F007F804E0012204210A
:1061E0000848FFF79BFF31BD80B505480068C00730
:1061F000FBD4012204210348FFF790FF01BD0000FA
:1062000008800840008008400480084030B4030043
:106210001C6810000200D207D20F01208840C5433D
:106220002540100088402843186030BC7047F8B5FE
:1062300082B004000D001700089EE4B2062C03DAB9
:10624000102D01D2012000E00020C0B2082D11D293
:10625000564800680F212A0004235A43914088437E
:10626000E4B229000422514322008A4002434F48ED
:10627000026013E02800083800904D4800680F21A4
:10628000009A04235A4391408843E4B200990422BF
:10629000514322008A40024345480260FFB23A005F
:1062A00029004448FFF7B2FF6846027A29004248B5
:1062B000FFF7ACFF0120A84040490860F6B2320069
:1062C00029003F48FFF7A2FFF7BDF0B5C0B206288E
:1062D00003DA102901D2012400E00024E4B2D2B292
:1062E000002A12D0002B08D001248C402E4DC0B2C1
:1062F00024264643AD192C6107E001248C402A4D29
:10630000C0B224264643AD196C61082919D2264C27
:10631000C0B224254543641964680F250E00042784
:106320007E43B540AC43D2B20E0004256E43150047
:10633000B54025431C4CC0B224264643A4196560D1
:106340001AE0194CC0B2242545436419A4680F25EE
:106350000E00083E04277E43B540AC43D2B20E0087
:10636000083E04256E431500B54025430E4CC0B2CF
:1063700024264643A419A560D2B2002A12D1002BCC
:1063800008D001248C40084DC0B224264643AD19E4
:106390002C6107E001248C40034DC0B22426464303
:1063A000AD196C61F0BD000000600040006100406C
:1063B00004610040086100400C6100401C61004025
:1063C000106100401206130A1A43130C1A4300BF4F
:1063D000094205D0830705D00270401C491EF9D13F
:1063E00070470000130030B414001500103902D3B8
:1063F00010393CC0FCD2490700D30CC000D504C002
:10640000890002D30280801C002900D5027030BCB4
:1064100070470000F8B582B007000D001600002D8F
:1064200003D14648FFF72AFC05006846007A002899
:1064300006D020280ED0402816D0602821D02AE08F
:106440002809B04201D3012000E00020C0B2102092
:10645000009021E0E808B04201D3012000E00020D4
:10646000C0B20820009017E028000621FEF733F99B
:10647000B04201D3012000E00020C0B2062000900D
:106480000AE0A808B04201D3012000E00020C0B219
:106490000420009000E023E0042068430099714349
:1064A000490840180400200000997143FEF713F9D1
:1064B0000400241F402044432148844201D201208B
:1064C00000E00020C0B220001E4C0440386860216B
:1064D0008843386038686946097A014339607C61CD
:1064E000F7BD38B505000C002A48854201D10120CE
:1064F00000E00020C0B2280000F026F8A07C0028B0
:1065000004D028688021C90501432960E07C002867
:1065100003D0207D10210143A965607B1021615EBD
:1065200008430E21615E08436860237BA2686168AE
:106530002800FFF76FFF2078E86031BD108102006E
:10654000C1FF1F00C0FF1F0000B51249884201D1E2
:10655000012100E00021C9B20F49C16000210160A2
:106560000E49416000218160002141610021C16428
:106570000B498164002141650649884201D100210F
:106580000165002181650349884201D10021C1656F
:1065900000BD000000C40040AA0E0000051000006D
:1065A000F91F000008B4024B9C4608BC6047C04677
:1065B0000101002080B5002069460870002069466E
:1065C000487000206946887000206946C87000F055
:1065D0000FFC72B6042269467448FFF7E3FF62B607
:1065E00000F045FC012002BD30B58DB07048006858
:1065F00005002800694608704B2004A94870002057
:1066000069468872002069464872452004A9C8700E
:10661000512004A9C871002069460873542004A9B8
:1066200008725E2004A94872002069464873412020
:1066300004A9887200206946C87300206946C872A0
:10664000442004A94873002069468873322004A9B5
:10665000C873280A69464870522004A9C8722800E5
:10666000000C69468870462069460874012004A918
:106670008873280E6946C8704F2004A90873C6485D
:1066800000680500432004A9487128006946087184
:106690006A2004A90871280A69464871592004A98A
:1066A00088712800000C69468871592004A98870F7
:1066B000280E6946C87100206946087204AB102292
:1066C000B64908A800F076F800200400E4B2102CC7
:1066D00009DA08A8E4B2005D6946E4B2095D8842BF
:1066E00001D1641CF2E7E4B2102C01D101205BE07F
:1066F00000200400E4B2102C07DAE4B2A848205CC1
:1067000008A9E4B20855641CF4E710200400E4B2C0
:10671000002C31D008A8E4B20019401E0078FF28F0
:1067200028D008A8E4B20019401E0078002815D12E
:10673000E4B2022C1DDB08A8E4B20019801E007828
:10674000002817D008A8E4B20019801E0078400085
:1067500008A9E4B20919891E08700AE008A8E4B281
:106760000019401E0078400008A9E4B20919491E2A
:10677000087001E0641ECAE7E4B2002C02D1FE20DA
:1067800008A9C87308A80078002801D100200BE0F0
:1067900000F02EFB72B6102208A98148FFF702FF15
:1067A00062B600F064FB01200DB030BDFC7F00003C
:1067B000F081E00FFEB586B07A4C7B4D05956E46B4
:1067C000367F092E03DA01266F463E7708E06E46D3
:1067D000367F112E03DA02266F463E7700E0B0E0E6
:1067E00000260496002603960026029600260196AF
:1067F00000263300042B38D2049F0097089EF65CD5
:10680000B4461F00082677436646BE40009F3E43BD
:106810000496039F0097089EF6183679B4461F0029
:10682000082677436646BE40009F3E430396029F7C
:106830000097089EF618367AB4461F00082677435C
:106840006646BE40009F3E430296019F0097089E09
:10685000F618367BB4461F00082677436646BE40CE
:10686000009F3E4301965B1CC4E7002635006E4640
:10687000367FEDB2B54264D20026310000263200E8
:10688000484E340000263300042B1ED20E00069919
:10689000EDB208276F43C919C95C8C461F00082157
:1068A0004F436146B94031431600069AEDB20827BE
:1068B0006F43D219D218127994461F000822574309
:1068C0006246BA4032435B1CDEE700263300202BD1
:1068D0001BD20E01029FF6190F197740BC464F09D3
:1068E000019EBE1967467E40921B1601049FF61951
:1068F00017197740BC465709039EBE1967467E406C
:10690000891B059EA41B5B1CE1E700263300042BBA
:1069100008D21E0008277E430F00F7400770401C76
:106920005B1CF4E700263300042B08D21E00082766
:106930007E431700F7400770401C5B1CF4E76D1C9A
:1069400095E709B0F0BD194819490860704701B5CD
:106950006846007817490978884217D06846007859
:1069600001280ED114480078401C134908701248C1
:10697000007805280EDB00200F490870FFF7E3FFC1
:1069800008E0684600780B49087003E06846007824
:106990000849087001BD0000F481E00FF02B0000F1
:1069A000E02B00002037EFC6B979379E0400FA05C6
:1069B0000CED00E0620B0020630B002010B582B0EC
:1069C0000400FDF75FFE012302226946A220FDF7C5
:1069D00049FD684600784006400E6946087001236C
:1069E00002226946A220FDF7C8FD0820694608700A
:1069F000002069464870022300226946A220FDF764
:106A0000BCFD832069460870032069464870002059
:106A10006946887003230D226946A220FDF7ADFD6B
:106A200013BD1CB504004A48008B80B2C0080100A9
:106A3000C907C90F002900D088E007230222694650
:106A4000A220FDF70FFD00284FD10020414908701A
:106A50003F48008B404901403D48018368468079AA
:106A600000F0B9F83D49087068464079C006C00E8C
:106A700000F0B1F8394948706846C0788006800E49
:106A800000F0A9F835498870684680788006800E45
:106A900000F0A1F83149C870684640784006400EC1
:106AA00000F099F82D490871684600784006400EBC
:106AB00000F091F829494871284800782849087061
:106AC000264840782749087024488078264908706D
:106AD0002248C07825490870204800792449087068
:106AE0001E4840792349087014E01A480078401C79
:106AF00018490870174800780A2808DB0020154953
:106B000008701348008B082101431148018380203D
:106B10006946087068460078000617D56846007810
:106B20004006400E69460870012302226946A220F1
:106B3000FDF723FD832069460870032069464870ED
:106B400002230D226946A220FDF717FD13BD0000A8
:106B5000E80A00207A0B0020F7FF00003C0B002021
:106B60001006002011060020120600201306002047
:106B7000140600201506002003B583B06846007B8C
:106B800000F035F86946887103A8407800F02FF8C6
:106B90006946487103A8807800F029F86946C870F2
:106BA00003A8C07800F023F86946887003A800792C
:106BB00000F01DF86946487003A8407900F017F806
:106BC00069460870072302226946A220FDF7D5FC1A
:106BD000002005B000BD01000A00D2B212090A234C
:106BE0005A4310000A07120F8018C0B2704730B520
:106BF0000400E4B220000A21FDF76AFD05002D0122
:106C0000E4B220000A21FDF763FD6D182800C0B230
:106C100030BDFEE710B500F00AF80400294800680E
:106C20000007000FC44028480460200010BD00B5D4
:106C300026490968F02292010A40802109018A420E
:106C40000FD0802149018A4207D0802189018A42E0
:106C50000BD11F49096808002FE0802109020800B4
:106C60002BE01C490968080027E01B490968E0225D
:106C7000D2000A40002A1BD0802149008A4214D049
:106C8000802189008A420DD0C02189008A4206D025
:106C90008021C9008A420ED1104908000DE0104938
:106CA00008000AE00F49080007E00F49080004E067
:106CB0000E49080001E00021080000BD70470448AB
:106CC0000068704704800C40580B00202C800C405A
:106CD00004000020000000200C800C40406F4001A8
:106CE000809FD500C0D8A70040B56400804F120037
:106CF00080B5FFF78FFF01BD00203649086070475F
:106D0000354834490860704710B5324800680100C2
:106D1000C907C90F0C00FFF7F3FF30480088AA210C
:106D2000490001402E4801602C480088F02189016B
:106D3000014080200001814218D080204001814222
:106D400004D080208001814208D017E025480068E7
:106D50000006FBD50320244908600FE021480068A5
:106D60008005FBD504202049086007E01D48006825
:106D70000007FBD502201C490860FFE71748007890
:106D8000C00702D4022016490860002C01D0FFF78A
:106D9000B3FF10BD10B50400124800680F49088009
:106DA00012480068042101431048016030BFE4B27A
:106DB000002C02D0FFF7A8FF05E008480088400536
:106DC00001D4FFF795FF10BD06480068034908800D
:106DD0007047000084800C400E580000600B0020BB
:106DE00020800C402C800C4024800C4010ED00E0F2
:106DF00038B52448244908602448006801218843A4
:106E000022490860D0204003FEF738FF04002048E4
:106E1000844214D30B20444320000A21FDF75BFC7D
:106E2000040020001B49FDF756FC401C05001A48D1
:106E300000681A49014029431748016016E03720CD
:106E4000444320000A21FDF746FC040020001149BC
:106E5000FDF741FC401C05000F4800680F49014048
:106E600029438020400208430B49086031BD074890
:106E70000068012188430549086000200249086034
:106E800070470000711B00003C000C4008000C40E3
:106E9000C1CF6A0040420F0050000C40C0FFFEFF0F
:106EA00070B50400A14800680421084000F044F9CE
:106EB00005009F4800680221084000F091F9060093
:106EC0009C480078401C9B4908709A4800786428C8
:106ED00002DB0020974908702078002811D0022892
:106EE00039D02DD3042800D184E04CD3062800D11A
:106EF000A7E000D298E0082800D1D9E000D2BCE099
:106F0000FFE00020B2494871032000F0C0F90320DF
:106F100000F0C0FA032000F01AFAAE48007800280A
:106F200005D0042020700020A949087101E001204B
:106F300020700020A84908700120A6490870E2E0EE
:106F4000EDB2012D01D102202070F6B2012E01D147
:106F500007202070D7E0012000F099F9012000F00F
:106F600099FA012000F0F3F90220994948719B48F1
:106F7000808B022101439948818302209449087142
:106F800003202070BFE0EDB2012D04D1002020705D
:106F900001209049087091484068FA218900884290
:106FA0001BDA8E484068AB49884216DB614800789E
:106FB000002816D186480069002805D08448006959
:106FC000401E834908610CE00020207001208149A7
:106FD00008700A207E49086103E07D4840697C49C9
:106FE00008617B4880699C490140002901D0052047
:106FF000207088E07648006900280CD174488089A8
:10700000002808D17248807A002804D1FFF79BFC41
:10701000002070490870EDB2012D04D102202070CB
:1070200000206C4908706EE0062020706B48808B51
:10703000FC21014069488183962040006449086131
:1070400061E03C48007800280ED1614800690028C2
:1070500005D05F480069401E5D49086104E00020DA
:10706000207001205B490870EDB2012D04D1002091
:10707000207001205749087045E0012000F007F911
:10708000012000F007FA012000F061F902205049C8
:1070900048715248808B012101435048818302206E
:1070A0004B4908710820207000206C4908702AE0C4
:1070B000C8204749C8721F480078002820D1474897
:1070C000406864280EDA65480078401C63490870FF
:1070D00062480078032808DB00206049087000201F
:1070E000207002E000205D4908703C4840685C491F
:1070F000884205DB3948808B022101433748818370
:1071000001E0002020703248807A002804D0304806
:10711000807A401E2E4988722D48C07A002804D0FB
:107120002B48C07A401E2A49C87270BDD06000400A
:107130001C600040740B002010B50400A4B2002CA9
:1071400022D148480078401C4649087045480078DC
:107150000A2839DB434800780A2803D10120424934
:1071600008700DE03F480078322803DA02203E49DB
:10717000087005E003203C490870C82039490870B0
:1071800000203A4908701FE038480078401C374911
:107190000870364800780A2816DB344800780A2838
:1071A00009D1042030490870FFF71EFA002805D1E4
:1071B000FFF7C9FB02E005202B49087014202B497A
:1071C00008700020274908702748007810BD00008B
:1071D000E80A0020730B0020C70A0020840A002060
:1071E00000B5010089B2002917D121480078401C60
:1071F0001F4A10701E4800780A2828DB1C480078B7
:107200000A2803D101201B4A107002E00220194A0B
:1072100010700020184A107019E017480078401CC0
:10722000154A1070144800780A2810DB12480078BC
:107230000A2803D104200F4A107002E005200D4AED
:10724000107014200C4A10700020094A1070094870
:10725000007800BD19FCFFFF51750000750B002080
:10726000E9030000760B0020D0010020770B0020FE
:10727000780B0020D1010020790B00207047744862
:107280000068042188437249086030BF704700B528
:1072900070490870C0B2032815D101216D4A1171DF
:1072A00000216C4A91700A216B4A117000216B4ACF
:1072B000917200216A4A1170FF216A4A11700121FE
:1072C000644A51700DE00021624A9161FF21654AD4
:1072D0001170A52189005F4A51615E4949695D4A83
:1072E000116100BD80B500F015F8FDF73BFB0320F0
:1072F000FFF7CDFF032000F0CDF8032000F027F8C2
:1073000062B600F06FF800F03EF800F02DF800F0E3
:1073100085F8F6E780B5FFF7B1FF0320FEF722FE00
:10732000012201210320FEF765FE05210120FEF761
:1073300081FD05214C48FEF77DFD01214A48FEF7FD
:107340005FFC002201210120FEF754FE01BD10B5B3
:1073500004002000C0B2FFF731FBFDF793F92000D5
:10736000C0B2C046C04610BD80B540480078C007D6
:1073700008D53E480078FE2101403C4801703C4859
:10738000FEF79EFA01BD00B591B03848007880073D
:1073900026D536480078FD21014034480170FDF7BC
:1073A000DDFA3448FFF77CFD2D480078012803D032
:1073B00031493248FBF766FC304982B068464422C6
:1073C000FDF722FB0CBC2E490FA8FDF777FB2D48DB
:1073D0000FA90522FDF704FB1E48407AFFF7B7FA14
:1073E00011B000BD80B521480078400715D51F4871
:1073F0000078FB2101401D480170194800780128E0
:107400000BD01448007800F055F81248007800F0CE
:1074100017F910480078FFF704FB01BD80B50D484F
:107420000069002811D10B48808900280DD1094836
:10743000C07A002809D10748807A002805D100F0D9
:1074400023F80120FFF7A6FC01E0FFF718FF01BDBC
:1074500010ED00E0E80A0020C50A0020F007002037
:10746000C70A0020C40A002010810200500B00202F
:107470004C090020EA0A0020ED0A0020840A0020BE
:10748000EC0A00202C0B002080B5FDF711FDFDF764
:10749000A3FA01BD10B504002000C0B2FDF7CEFA7A
:1074A000FDF70EFAFDF71AFA2000C0B2FDF792FDC3
:1074B00010BDFEE73EB50500462056490870002085
:1074C0005449487000205349887000205149C870C1
:1074D00051480088401C504908804F4800884F4957
:1074E000884204DA4E480078800700D490E00020FB
:1074F000494908804A480078FD2101404848017008
:107500004848008B80B280080100C907C90F0029D4
:107510007BD1102312224449A020FCF7A3FF0028AE
:1075200060D100204149087024232E224049A02028
:10753000FCF798FF052352226946A020FCF792FF32
:1075400068460078002803D10020364948611FE0D2
:1075500068460078012803D100203249486117E0CD
:1075600068460078052804DAA52080002D49486186
:107570000EE068460078FF2806D0684600783C2177
:1075800048432849486103E0A52080002549486117
:1075900068464078002808D0684640781A2804DAFF
:1075A000684640782349087002E00A2021490870A3
:1075B0006846C078012803D101201F49087002E005
:1075C00000201D49087000200400E4B20C2C1FDAD2
:1075D0001A48E4B2005D0F49E4B209193E3108705F
:1075E000641CF2E711480078401C104908700F48ED
:1075F00000780A280CDB00200C4908700948008B31
:10760000042101430748018302E000200A49087071
:1076100037BD0000D8050020CC010020110E00006D
:10762000C40A0020E80A002000060020690B0020A0
:1076300022060020C50A0020C60A00203C7A00006D
:107640003EB505007A48008B80B240080100C907AA
:10765000C90F002900D0D8E0042306226946AA20D9
:10766000FCF700FF002800D0BCE000207149087042
:107670006F48008B704901406D480183684640782F
:10768000000269460978401804006C48241820005C
:107690006B49C88220006B49087120126949487102
:1076A000200000146749887120166649C871684631
:1076B000C0780002694689784018614988820623AB
:1076C00010226946AA20FCF7CDFE684640780002E9
:1076D0006946097840185A49C8605948C0685849ED
:1076E000C8605748C068574908765548C068000ABE
:1076F000544948765248C068000C52498876504830
:10770000C068000E4F49C8766846C07800026946D6
:10771000897840184A490861494800694849086120
:10772000474800694749087745480069000A4549C4
:10773000487743480069000C42498877404800690F
:10774000000E4049C87768464079000269460979C9
:10775000401800B23A4988603948806838498860E2
:1077600037488068374908733548806800123549C2
:107770004873334880680014324988733048806801
:1077800000163049C87306232A226946AA20FCF74E
:1077900069FE684600782C490870684640782B4995
:1077A0000870684680782A490870684680782549BC
:1077B00008746846C07823494874002021498874B9
:1077C00000202049C874684600791E49087568463B
:1077D00040791C49487500201A49887500201949CC
:1077E000C87524E013480078401C124908701148FD
:1077F00000780A281BDB00200E4908700C48008B1B
:10780000022101430A48018311E000200C498860ED
:1078100000200B49086000200949C8600020084981
:10782000086100200A49087000200549888237BD98
:10783000E80A00206A0B0020FDFF000055F5FFFF5D
:10784000840A0020D8050020FC050020FD0500204A
:10785000C20A0020F8B4016842184468610851184F
:107860008368E40701D54C461B190C3000908A420E
:107870002BD01578521C03262E4002D11678F61C08
:10788000521C28090F2807D110780F30521C03E032
:107890001778521C1F705B1C761EF9D10028E6D0A9
:1078A0001678521CAF0803253D40032D01D11578F1
:1078B000521C2D0275195D1B801CD8D02E786D1CB2
:1078C0001E705B1C401ED2D0F8E70098F2BC7047D7
:1078D0000B208E1FF61E351E671D6C1C501B0A1ACE
:1078E000B1183717B01513147812DF10510FD30DDC
:1078F0006C0C1D0BE909D008D307F50623067105AA
:10790000D2044604CC035D03FE02AA02600200001A
:1079100070B40121002313E00468001D0C4202D062
:107920004D466D1E64192360241D121F042AFAD2CD
:107930002500960701D52380AD1C0A4000D02B708E
:107940000268001D002AE7D170BC704710B50749D6
:1079500079441831064C7C44163404E0081D0A684A
:10796000891888470100A142F8D110BD0800000025
:10797000240000009DFFFFFFA8050000D80500209F
:1079800000000000D1FEFFFF3001000006030000F0
:10799000000000200008090A0D0E0F101617181914
:1079A0001B1C1D2021222324252627781E280000A9
:1079B0000004080C1014181C2024282C3034383EE5
:1079C0004A56626E8EAEBADECACE00000120C046B4
:1079D000002801D0FFF7BAFF0020C046C046FFF7DD
:1079E00081FC00F000F880B500F002F801BDFEE770
:1079F0000746384600F002F8FBE7FEE720210903BE
:107A000026311820ABBEF9E7050000000000000099
:107A100000C201000005000000100000000000008E
:107A20000148804701480047BD6C00006D7A0000A6
:107A3000000F0F0F1BE39F7FF0FFFF00477265658C
:107A40006E77617900000000010001010000000074
:107A50000800000008090A0B0D0E0F101748242516
:107A600004080C0C1010181C24FFFFFFC046C04671
:107A7000C046C046FFF7AAFF04020202030000004E
:107A80000A0F0E0D0700000018191A00010101006D
:107A90005A4D4600626F6F746C6F6164657220733B
:107AA000FEE7FEE7FEE7FEE7FEE7FEE7FEE7FEE7AE
:107AB000FEE7FEE7FEE7FEE7100D00127A00008009
:107AC000000010B501006948030410210068C007D8
:107AD00003D5002B01D05B1EF7E7002B02D102205B
:107AE000C04316E0644801600120634C20606024BC
:107AF000100D020006201040002809D0500702D5C2
:107B00000022100105E0900A12010A101100E000A5
:107B10002010BDF0B50200554B0026012005005392
:107B20005A125336E002000703D45A10093CE01001
:107B3000684F4F386010204C06100B0120040012D3
:107B40001D8C4220DA681E206010010ED1443CF2E8
:107B500006443C20011EE03DB020010603D50E1076
:107B6000010600054C123C461005641C121DDCE7A2
:107B7000353AF20635D020140600300040B2F0BD90
:107B8000F7B582B000260298800701D10120BA1013
:107B900001C0B2040E8002800F0028121228461481
:107BA00003012101432604111E100210009000A8B9
:107BB000201C03980500009884422BDA02980421C7
:107BC00061434018FFF75BFF060076B2002E02D03B
:107BD00060101526E08020C00002990422624389CB
:107BE000188905890D401A800807362004001BB843
:107BF0004202DA085007070039002800FFF7673A09
:107C0000300B04D1E419042078432D18D0E70A780A
:107C1000200488430849086050140205B0F0BDAF45
:107C200010069698001C000C401004120C04121848
:0B7C30000422081000030E640105058B
:0400000500007A6D10
:00000001FF
